:0A0000000C9453000C9400000C94C3
:10000A0000000C9400000C9400000C9400000C9466
:10001A0000000C9400000C9400000C9400000C9456
:10002A0000000C9400000C9400000C9400000C9446
:10003A0000000C9400000C9400000C9400000C9436
:10004A0000000C9400000C940000000053696E201C
:10005A0000436F73200054616E2000436F742000C8
:10006A006153696E0061436F73004C6F67200053E0
:10007A007172742000657870200080C001002D4ED6
:10008A00414E00494E46000001000700540002009C
:10009A008D0184000100910186000000F894EE278A
:1000AA00ECBBF1E0FBBFEBBFE5BFF8E1F1BDE1BDA1
:1000BA008DE0A2E0BB27ED938A95E9F780E094E012
:1000CA00A0E6ED930197E9F7E2E9F0E085919591D1
:1000DA00009761F0A591B59105901590BF01F001C7
:1000EA0005900D920197E1F7FB01F0CFEFE5EDBF27
:1000FA00E4E0EEBFC0E6D1E00C948300EFE0E7BB9A
:10010A00E7E0E4BBEFE0E1BBA0E1D4D202D0FECF4E
:10011A00FFCF1A930A9301E010E079D511F47CD548
:10012A007CC0EAE07E1608F491D5E9E0E71518F4F8
:10013A00E0E17E1608F038C0EFE0E71511F46CD55F
:10014A006CC0672CADD5A1E0B0E00AD1002E012A1F
:10015A0059F15DD511F460D560C0EAE07E16D0F49D
:10016A00A4D5ACD5DF01CB01E72DAED58CD7E09372
:10017A006401F0936501609366017093670190D5FD
:10018A00A4E7B1E0C9D2A4E7B1E062D2A2E3B0E049
:10019A00B9D609C0EEE0E71531F4ADE340D244D058
:1001AA00772400E010E0D2CFEFE0E715B0F52AD2CD
:1001BA00E0E0E0936001E0936101E0936201E09383
:1001CA006301E0936401E0936501E0936601E093C3
:1001DA006701E0936801E0936901E0936A01E093A3
:1001EA006B015ED5A2E0B0E0BBD0672C01E010E065
:1001FA00002E012A91F00BD511F40ED50EC0EAE0BB
:10020A007E1610F423D506C0EEE0E71519F4ADE327
:10021A0006D24AD001E010E0EBCFE0E0F0E060E087
:10022A0070E0099119910895EAE0E61511F451D5A3
:10023A0061D5EBE0E61519F44CD575D765D5ECE038
:10024A00E61521F432D569D517D75ED5EDE0E61566
:10025A0019F43FD518D758D56EC0BA93AA9366D564
:10026A006AD544245524E881F9814E165F0694F430
:10027A00A0916C01B0916D0180916E0190916F0116
:10028A00EAEEF7EE6DE270E44ED755D5F2013196FB
:10029A002F01E9CFE0916C01F0916D0160916E013F
:1002AA0070916F010C94050338D5A5E3BAEF8EE877
:1002BA009CE339D7E0937001F09371016093720166
:1002CA0070937301E0E1E61519F43ED57ED31CD58F
:1002DA00E1E1E61519F438D5CCD316D5E2E1E615F5
:1002EA0019F432D5D0D310D5E3E1E61521F42CD593
:1002FA00CAD333D5FFD4E4E1E61519F425D527D4BA
:10030A0003D5E5E1E61519F41FD55ED4FDD4E6E17F
:10031A00E61519F427D5F4D2F7D4E7E1E61519F46E
:10032A0021D5B4D7F1D4E8E1E61529F4F6D43AD6C2
:10033A00DF0193DFE9D4E0916801F09169016091EE
:10034A006A0170916B01FBD7E3E0EA93A4E7B1E09D
:10035A0011D2A4E7B1E07CD1A4E6B0E0D3D50895E8
:10036A00BA93AA93A881B9811197D9F4AA81BB81BA
:10037A001A9711F4AFE253D1AA81BB811B9711F4EA
:10038A00AAE24DD1AA81BB811C9711F4ADE247D1F3
:10039A00AA81BB811D9711F4ABE241D1A4E6B0E07A
:1003AA00B1D5A881B981129709F042C0AA81BB814F
:1003BA00509719F4A6E5B0E05AD1AA81BB815197AA
:1003CA0019F4ABE5B0E053D1AA81BB81529719F475
:1003DA00A0E6B0E04CD1AA81BB81539719F4A5E6F7
:1003EA00B0E045D1AA81BB81549719F4AAE6B0E0DE
:1003FA003ED1AA81BB81559719F4AFE6B0E037D157
:10040A00AA81BB81569719F4A4E7B0E030D1AA813A
:10041A00BB81579719F4A9E7B0E029D1AA81BB811A
:10042A00589719F4AFE7B0E022D1A4E6B0E06AD554
:10043A000C94FD051A9311E0103009F498C0909AB3
:10044A00919892989398849B03C0E7E0F0E08FC05C
:10045A00859B03C0E8E0F0E08AC0869B03C0E9E020
:10046A00F0E085C0879B03C0EAE0F0E080C0909886
:10047A00919A92989398849B03C0E4E0F0E077C045
:10048A00859B03C0E5E0F0E072C0869B03C0E6E00E
:10049A00F0E06DC0879B03C0EBE0F0E068C0909885
:1004AA009198929A9398849B03C0E1E0F0E05FC030
:1004BA00859B03C0E2E0F0E05AC0869B03C0E3E0FC
:1004CA00F0E055C0879B03C0ECE0F0E050C0909884
:1004DA0091989298939A849B03C0EFE0F0E047C00A
:1004EA00859B03C0E0E0F0E042C0869B03C0EEE0DB
:1004FA00F0E03DC0879B03C0EDE0F0E038C0A89A69
:10050A00A998AA989D9B03C0E0E1F0E030C09E9BA9
:10051A0003C0E1E1F0E02BC09F9B03C0E2E1F0E001
:10052A0026C0A898A99AAA989D9B03C0E3E1F0E087
:10053A001EC09E9B03C0E4E1F0E019C09F9B03C06C
:10054A00E5E1F0E014C0A898A998AA9A9D9B03C077
:10055A00E6E1F0E00CC09E9B03C0E7E1F0E007C0D3
:10056A009F9B03C0E8E1F0E002C011E065CF19915A
:10057A000895FFE0FA95F1F70895A7B3AF70A7BB06
:10058A00C19AC098F6DFC29AF4DFA6B3C298F1DF27
:10059A00C29AEFDFC298A7FDF5CF0895A07FAB2BD3
:1005AA00A8BBC29AE6DFC298E4DF0895AA93C1986D
:1005BA00A7B3A76FA7BBB8B3BF70A881EFDFA881A5
:1005CA00A295ECDFC19A0C948F03C29AD2DFE6B3EC
:1005DA00C298CFDFE07F0895CCDFF7DFAE2FF5DFDB
:1005EA00C198E295EA2B0895AA93C7DFE881F0E063
:1005FA00E357FE4FE081A981AE0FD8DF998088804A
:10060A0022960895BADFA2E0D1DFB7DFACE0CEDFF1
:10061A00B4DFA1E0CBDFE0E08E2E9E2E0895AA93F0
:10062A00EF93FF93A8816894AA3019F0E8949B1479
:10063A0030F08394E0E0EA93A82DD6DF2EF093946D
:10064A009CDFC09AA881B2DFFF91EF910C948F03CF
:10065A00BA93AA931A93A981BA81ED91A983BA830D
:10066A001E2FE03019F0A12FDADFF5CF10C0BA93B0
:10067A00AA931A93E981FA813196E983FA83319729
:10068A00E4911E2FE03019F0A12FC9DFF3CF1881B2
:10069A0023960895AA27BB271197F1F70895AA93DD
:1006AA00C198A7B3A76FA7BBB8B3BF70A88176DFFD
:1006BA00C19A30C0AA93C298C098B880E881E0581D
:1006CA00E0938F01E881E054E0939001E3DFA0E337
:1006DA00E6DFE0DFA0E3E3DFDDDFA0E3E0DFDADF90
:1006EA00A0E2DDDFD7DFA8E261DFD4DFA4E05EDFCE
:1006FA00D1DFA5E85BDFCEDFA7B3AF70A7BBC19A96
:10070A006BDFE53011F0E0E005C037DFA6E04EDF31
:10071A0079DFE1E021960895BA93AA93A991B99154
:10072A00E991F99130962AF4E095F09531966DE2C7
:10073A006D93E89480E197E20DD088EE93E00AD0B9
:10074A0084E6992707D08AE005D06E2F10D0662755
:10075A006C9308956627E817F90720F06395E81B5C
:10076A00F90BC9F7662311F416F008956894605DD1
:10077A006D930895BA93AA932497E0E0E883E983F6
:10078A00EA83EFE3EB831A930A93EB85FC85EF3F49
:10079A00AFEFFA0729F4F3D2A8E8B0E02BD272C07F
:1007AA00EF3FAFE7FA0729F4EAD2A9E8B0E022D28C
:1007BA0069C0AC85AA2332F4E7D2BFD3EAD2EED21B
:1007CA00EDE2EC93A885A73010F0E6E0E8871885FB
:1007DA00E12F1150E03021F0E8D2ECD2F1D2F8CF7B
:1007EA00F4D251D4D6D210E0A1D2EAD2EED22ED58A
:1007FA0060F0DBD263D2E4D21F5F173228F0BFD297
:10080A00ADE8B0E0F7D13EC0F1CF103021F4C6D246
:10081A00E0E3EC931AC0E12F1150E030B1F0C5D2F9
:10082A00C9D2DCD230D4DF01CB0160D0C9D2CDD25B
:10083A00C8D4B6D30E2FB2D2D6D2B7D245D273D439
:10084A00D7D287D519D4A5D2E6CFE885E030B1F062
:10085A00A5D2EEE2EC93E885E150E887EF5F71F00C
:10086A00C7D22CD296D290D29BD30E2F97D2BBD27C
:10087A00BFD22AD26ED500D48CD2EDCFAE81BF8141
:10088A00E0E0EC93198108812D9608955DD57B816E
:10089A006A81F981E88177FB770F67FD7160972F8D
:1008AA009E5781F078F0983190F4AA27BB278827C1
:1008BA0008948795B795A7959A95D1F7EA23FB23CC
:1008CA00682305C0E8947727EE27FF2766276F7706
:1008DA00769508F4606877F9A991B9918991999107
:1008EA00EA17FB076807790797FB089586D2CEDFD8
:1008FA0087D211F487D27CC1EEF784D22ED277C187
:10090A0023D524971A930A937FD234D514F081D22F
:10091A0058C084D214D5ADB7BEB711971F930F93A1
:10092A00FBD20F911F917FD26FD282D230F476D24E
:10093A006BD2A9D378D20150104070D20ED29CD378
:10094A007F936F93FF93EF9369D207D29CD3AF91B2
:10095A00BF918F919F9135D466D260D255D2E3D39D
:10096A002FD26CD2A6E2B2E485E69FE3DCD3DF01A4
:10097A00CB01EEE4F1E164E570E4EBD47DD344D23B
:10098A00D2D37F936F93FF93EF9358D2ADE4B1E143
:10099A0084ED9FE371D3AF91BF918F919F9111D451
:1009AA007F936F93FF93EF93F801B5D432D3A8E105
:1009BA00B2E781E39FE3B7D3AF91BF918F919F9144
:1009CA0062D3198108812A9608953DD2E3E8F9EFA6
:1009DA0062E27EE3A8D340D289DF47D2BAD44CD3AD
:1009EA003BD248D233D409F008F404C048D2F6D135
:1009FA004BD211E03AD2E0E0F0E060E87EE326D4A0
:100A0A0009F008F403C031D235D23ED2103009F0D1
:100A1A0041D235D22AD287D344D248D2A1EBB4EC00
:100A2A0086E292E480D3DF01CB01EDE1F5EE6DE2DF
:100A3A0072E48FD421D33FD2ACE4B3E584E091E4ED
:100A4A0022D313D270D37F936F93FF93EF932ED257
:100A5A00A1E1BDEE8EED9FE316D32DD2AEE5BBE745
:100A6A0088EA9FE310D3AF91BF918F919F91A9D349
:100A7A00A8C0C3D1EBEDFFE069EC7FE3FDD2DF0153
:100A8A00CB01A3DFB5C060D424971BD2F2DFB8D163
:100A9A006DD439F416D26ED414F418D22AC0B9D14E
:100AAA0028C00FD292DFDF01CB01ACD121C04CD4D8
:100ABA002497EC81FD816E817F8103D234D3A0D14A
:100ACA00A1D1A5E6B0ED8BEC90E405D2FAD12BD3F7
:100ADA007F936F93FF93EF9395D1A0E0BDE689E2F0
:100AEA0091E4D1D2FFD1F7D1AF91BF918F919F916C
:100AFA0068D32896089581D1EDECF3E164ED7EE3A5
:100B0A00A5D318F4EFD1D3DF73C0ECD1EAE7F2E84A
:100B1A006AE170E49BD309F008F404C073D11DD1D3
:100B2A00E3D160C06FD119D1A7D27F936F93FF939E
:100B3A00EF9368D112D1A7D2AF91BF918F919F91B4
:100B4A00D3D1ABEDBFE089E49FE39DD251C07BD105
:100B5A00CFD138F08AD1EAD079D311F008F001C0A8
:100B6A0002C0B4D12EC0A885AA2312F493D111E0F1
:100B7A0086D17BD1D8D2F1D0ECD37ED2DF01CB01A2
:100B8A0085D38FD172D154D109F008F40DC077D131
:100B9A00A981BA818B819C81B1D1ABEDBFE089EC8F
:100BAA009FE3D7D369D203C081D15FD1A7D1E983AB
:100BBA00FA836B837C83103019F078D1BED101C0DF
:100BCA0075D118812996089518D192D138F08AD111
:100BDA00ADD03CD311F008F001C002C077D108C0F3
:100BEA0081D1B5DFABEDBFE089EC9FE3B2D344D24C
:100BFA0024960895BA93AA93E991F991A991B99182
:100C0A00CD0105900D920020E1F7FC01089512DC58
:100C1A007E2EEFE0E7150895E0E0E0936001E093AF
:100C2A006101E0936201E0936301E0936401E09360
:100C3A006501E0936601E0936701E0936801E09340
:100C4A006901E0936A01E0936B01DCCCA091600139
:100C5A00B09161018091620190916301E0E0F0E05E
:100C6A0060E271E460D2DF01CB01E72DFF2766273E
:100C7A007727CFD108D2E0936001F09361016093A6
:100C8A00620170936301E72DF0E0FA93EA93A4E717
:100C9A00B1E042DDA4E7B1E0DBDCA2E3B0E032C1BF
:100CAA00E72DF0E0FA93EA930895A0916401B091D8
:100CBA00650180916601909167010895E0E0F0E096
:100CCA0060E271E430D20895FF2766277727A1D121
:100CDA000895E0916401F091650160916601709157
:100CEA006701A0916001B0916101809162019091C8
:100CFA006301089566D2E0936801F09369016093F5
:100D0A006A0170936B010895E0936801F093690199
:100D1A0060936A0170936B010895E0916001F0910C
:100D2A00610160916201709163010895E0E0F0E071
:100D3A0060E87FE30895E0936C01F0936D0160939E
:100D4A006E0170936F010895A0917001B0917101C5
:100D5A0080917201909173010895A0E0B0E080E85B
:100D6A009FE30895A0916001B091610180916201B1
:100D7A0090916301089510E0A2E3B0E0C3C0EE8150
:100D8A00FF81FA93EA930895E985FA856B857C8554
:100D9A000895E987FA876B877C870895AE81BF81BA
:100DAA001196AE83BF8311970895AA81BB818C8166
:100DBA009D810895EDECFCEC6CEC7DE3B4D10895D3
:100DCA00EA83FB836C837D830895EA81FB816C81CE
:100DDA007D81A985BA858B859C850895A0E0B0E0C0
:100DEA0080E09FE30895E02FE05DEC93E02F089503
:100DFA00A985BA858B859C850895A6D296D2089531
:100E0A0099D208958DD20895AE81BF81888599853A
:100E1A000895EFEFFFEF6FE77FEF0895EE81FF810F
:100E2A00688579850895EE83FF83688779870895B1
:100E3A00E3EFF4E065E37FE309D20895EA81FB81F9
:100E4A006C817D81089580D224971A9310E0AD8138
:100E5A00BE818F8198850895ED83FE836F8378879D
:100E6A00AD81BE818F8198850895AD81BE818F81C4
:100E7A0098850895E0E0F0E060E07FE30895ED8171
:100E8A00FE816F8178850895F7D0ED83FE836F83A5
:100E9A0078870895F4DF51D0ED83FE836F837887D6
:100EAA000895E983FA836B837C830895E981FA8143
:100EBA006B817C810895A981BA818B819C8133D110
:100ECA000895AC81BD818E819F810895EFEFFFEF78
:100EDA006FE77FE7089527D1AEE4BFE88AE491E49B
:100EEA00D2D0089522D208956CD1DF01CB01DFCD93
:100EFA00E0E0F0E060E87FEBA9D1089562D1DF017C
:100F0A00CB01F9CD109639F0A89588EE93E00197B8
:100F1A00F1F71197C9F70895E991F99169917991D2
:100F2A0077FB660F771F88277E57880B7D938C93F4
:100F3A007EE7769567950EF0089530976040704089
:100F4A0009F070580895552342F4503811F4E0FF1F
:100F5A0004C03196691F791F6BF050E8572711F4C6
:100F6A005F93CFC05F3F31F0660F000C57956795CE
:100F7A00752F08955F9300200AF0CFC0C8C050E8CB
:100F8A00192E1522880F991F9527550F879550E816
:100F9A00072E0522660F771F7527550F6795089547
:100FAA00689401C0E8945F93F2DF703818F07F3FCD
:100FBA0008F4A7C056E1571BAAF4519558300EF40D
:100FCA00593030F0EFEFFFEF6FEF7FE777F91AC094
:100FDA0077275523B9F0EE0FFF1F661F771F5A9523
:100FEA00D1F710C07727583028F0EF2FF62F672F48
:100FFA005850F9CF552331F076956795F795E795CF
:10100A005A95D1F700200AF478D15F91089568942F
:10101A0001C0E894309760407040B1F0002426F097
:10102A00772312F4009469D1172E7EE1112032F051
:10103A007A95EE0FFF1F661F111CF9CFEF2FF62FBF
:10104A00612D5F938ADF5F9108954F93AF01FD0190
:10105A00DA01AB01BC01CA01402D012C142E4F91BB
:10106A000895EA0FFB1F681F0895E095F0956095B3
:10107A00EF5FFF4F6F4F08955F9381DF903871F1F3
:10108A0050E8152604C05F937ADF903839F170383A
:10109A0021F1572F591B2BF112F4D7DFFACF583110
:1010AA0018F0AA27BB278827583028F0AB2FB82F6B
:1010BA0088275850F9CF552329F08695B795A795D3
:1010CA005A95D9F7502D512572F0CBDF38F4679530
:1010DA00F795E795739513F420C0B7DF3EDF5F916C
:1010EA000895D8F7FBCFEA1BFB0B680B51F010F4FD
:1010FA000094BBDF662392F3EE0FFF1F661F7A95FB
:10110A00CBF7EE27FF27662777275F910895EFEF42
:10111A00FFEF6FE77FEF5F910895EFEFFFEF6FE764
:10112A007FE75F9108955F932ADF703851F3903813
:10113A0041F301240894791F23F41CF300203AF3A5
:10114A00ECCF0F921F932F933F934F931127222790
:10115A009927689FA0018F9F302D410D591F6B9FC2
:10116A00300D411D591F8E9F27D0BF9F25D06A9FE2
:10117A0023D0BE9F1DD0AF9F1BD0AE9F110D291F3C
:10118A00391F491F591FE32FF42F652F522F4F91F3
:10119A003F912F911F910F9066232AF0550FEE1F52
:1011AA00FF1F661F02C073954BF2CDDE5F91089553
:1011BA00100D211D391F02C0200D311D491F591F55
:1011CA0008955F93DCDE703821F411200AF49FCF72
:1011DA00A4CF903809F495CF01240894970B1BF4F7
:1011EA00D4F30020F3CF792F1F932F933F934F937C
:1011FA0011241127222733274427552790E2AE17B7
:10120A00BF078607410730F0AE1BBF0B860B410BA9
:10121A00089401C08894551F221F331F111CAA1F4E
:10122A00BB1F881F441F9A9551F7F901612D4F91F1
:10123A003F912F911F91662332F0550FEE1FFF1F2A
:10124A00661F7A9543F27FDE5F91089599239AF09B
:10125A00772342F0971748F029F4AE17BF0786079D
:10126A0020F031F0989488940895989408940895F9
:10127A001894889408957723C2F7971798F3A9F7D3
:10128A00EA17FB07680788F399F3ECCF5DD0249738
:10129A005F939F81992311F4289633CF12F42896ED
:1012AA003CCF4F9342E48E81BD81AC818883998380
:1012BA00AA83BB83FD01BC01AC81BD818E819F8164
:1012CA0080DF88819981AA81BB81DDDE60DE7A9523
:1012DA0044DE88819981AA81BB81AE27A87F21F447
:1012EA00BF178607970729F04A9519F0DF01CB0146
:1012FA00DDCF4F915F9128960895F095609570958E
:10130A00E195FF4F6F4F7F4F0895FE2FFF0FFF0BA1
:10131A006F2F7F2F08956F2F660F660B762F089514
:10132A00E881F9816A817B810895A881B9818A81DE
:10133A009B810895E883F9836A837B8308957A936E
:10134A006A93FA93EA9308959A938A93BA93AA931B
:10135A000895182E862F612D192E972F712D1B2E69
:10136A00BF2FF12D1A2EAE2FE12D08953097604030
:10137A007040089500240A160B0608060906089507
:00000001FF
